:020000040000FA
:0400000013EF00F00A
:060008005A82A9ED19F077
:100018005A80E0CF04F004C0E0FF5A90100059EF76
:020028001CF0CA
:1008000000566F6C74616A653A2025302E32665648
:10081000200A004269656E76656E69646F203A440D
:1008200000494E46004E414E00696E66006E616E94
:05083000006C660000F1
:10083600000E00017B6F000E7A6F3AC08CF03BC051
:100846008DF03CC08EF03DC08FF08FBF2FEF04F0CF
:100856002DEF04F045EF04F0000E7B6F010E7A6F6A
:100866008CC005F08DC006F08EC007F08FC008F072
:10087600EBEC1BF005C08CF006C08DF007C08EF0C7
:1008860008C08FF0000E0001936F000E926FDAC061
:100896007FF0DBC080F07A517B11D8A455EF04F0CD
:1008A60057EF04F05EEF04F056A45CEF04F05EEF41
:1008B60004F078EF04F07A517B11D8A465EF04F0C8
:1008C60067EF04F06DEF04F0000E656F2B0E646F9A
:1008D60071EF04F0000E656F2D0E646F64C000F1B9
:1008E600924B932B7F07D8A080078CC005F08DC054
:1008F60006F08EC007F08FC008F078EC16F00504FD
:100906000610D8A489EF04F08BEF04F0E2EF04F0B0
:10091600BF0E3F6EFF0E406E3E50416E426A3F5024
:1009260041264050422242500AE11A0E415CD8A0AC
:100936009FEF04F0A2EF04F0010EA3EF04F0000E07
:100946000001666F676B66516711D8B4ADEF04F0AE
:10095600AFEF04F0BDEF04F0000E9225056E010E18
:100966009321066E210E076E080E086EBEEC1AF075
:10097600C9EF04F0000E9225056E010E9321066E56
:10098600290E076E080E086EBEEC1AF00001FD0E69
:100996007F27FF0E802338C015F039C016F0000EF1
:1009A600176E010E186E7FC019F080C01AF09BEC0E
:1009B60018F015C038F016C039F0F3EF09F08CC006
:1009C60005F08DC006F08EC007F08FC008F078ECF9
:1009D60016F005500610D8A4F3EF04F0F5EF04F076
:1009E60035EF05F0BF0E3F6EFF0E406E3E50416E76
:1009F600426A3F5041264050422242500AE11A0EB6
:100A0600415CD8A009EF05F00CEF05F0010E0DEFE3
:100A160005F0000E0001686F696B68516911D8B462
:100A260017EF05F019EF05F027EF05F0000E9225F8
:100A3600056E010E9321066E250E076E080E086ED2
:100A4600BEEC1AF0C9EF04F0000E9225056E010EF9
:100A56009321066E2D0E076E080E086EBEEC1AF078
:100A6600C9EF04F0000E0001946F000E956F800E22
:100A7600966F3F0E976F000E916F000E906F8CC0B1
:100A860005F08DC006F08EC007F08FC008F0000E8E
:100A9600096E000E0A6E000E0B6E000E0C6E54EC04
:100AA60019F0D8B059EF05F05BEF05F0DEEF05F071
:100AB6007AEF05F094C013F095C014F096C015F0C7
:100AC60097C016F0000E176E000E186E200E196EE7
:100AD600410E1A6EE6EC0EF013C094F014C095F0B9
:100AE60015C096F016C097F00001904B912B8CC064
:100AF6002CF08DC02DF08EC02EF08FC02FF0000E82
:100B0600176E000E186E200E196E410E1A6E94C0E6
:100B160013F095C014F096C015F097C016F0E6ECE9
:100B26000EF013C030F014C031F015C032F016C00C
:100B360033F0F6EC15F0D8B0A3EF05F0A5EF05F00D
:100B46005DEF05F0C5EF05F094C005F095C006F021
:100B560096C007F097C008F0000E096E000E0A6EE8
:100B6600200E0B6E410E0C6EFBEC10F005C094F0DF
:100B760006C095F007C096F008C097F000019007F0
:100B8600D8A091078CC02CF08DC02DF08EC02EF011
:100B96008FC02FF094C030F095C031F096C032F07F
:100BA60097C033F0F6EC15F0D8A0DCEF05F0DEEFD9
:100BB60005F0A7EF05F03EC00BF00C6A8EEC1AF0BC
:100BC6000B500001816F81C07EF0670E8119D8A499
:100BD600EFEF05F0F1EF05F017EF06F05450551062
:100BE600D8A4F8EF05F0FAEF05F0FEEF05F0000ED9
:100BF600556E010E546E55BE0BEF06F0555006E1CC
:100C06005404D8B009EF06F00BEF06F011EF06F02A
:100C1600000E7D6F060E7C6F20EF06F054C07CF050
:100C260055C07DF020EF06F055BE1CEF06F01EEF16
:100C360006F00BEF06F011EF06F0670E8119D8A447
:100C460027EF06F029EF06F058EF06F091AF37EFE1
:100C560006F0FC0E905DFF0E9159D8A035EF06F018
:100C660037EF06F056EF06F0FF0E3F6EFF0E406EB2
:100C76007CC041F07DC042F03F50412640504222A8
:100C86009051415C4250800A436E9151800A43580C
:100C9600D8A050EF06F052EF06F056EF06F0660EBB
:100CA6007E6F58EF06F0650E7E6F7CC074F07DC0D7
:100CB60075F0670E8119D8A463EF06F065EF06F0AC
:100CC60075EF06F0660E7E19D8A46CEF06F06EEF8F
:100CD60006F077EF06F091BF75EF06F073EF06F0BA
:100CE60077EF06F0744B752B660E7E19D8A47EEF4F
:100CF60006F080EF06F0A0EF06F091BF87EF06F052
:100D060085EF06F093EF06F0000E946F000E956FD8
:100D1600800E966F3F0E976F000E916F000E906FCC
:100D2600670E8119D8B49AEF06F09CEF06F0A0EF93
:100D360006F09051742791517523000E8B6F000EAB
:100D46008A6F8CC082F08DC083F08EC084F08FC015
:100D560085F094C060F095C061F096C062F097C0CF
:100D660063F031EF07F082C005F083C006F084C05F
:100D760007F085C008F094C009F095C00AF096C047
:100D86000BF097C00CF0FBEC10F005C01EF006C08F
:100D96001FF007C020F008C021F0C8EC12F01EC0FA
:100DA60086F01FC087F020C088F021C089F086C079
:100DB60005F087C006F088C007F089C008F073EC1C
:100DC60015F005C078F006C079F082C02CF083C01B
:100DD6002DF084C02EF085C02FF094C017F095C07A
:100DE60018F096C019F097C01AF086C013F087C0A5
:100DF60014F088C015F089C016F0E6EC0EF013C0AA
:100E060030F014C031F015C032F016C033F069EC82
:100E16001BF02CC082F02DC083F02EC084F02FC0B2
:100E260085F094C005F095C006F096C007F097C00F
:100E360008F0000E096E000E0A6E200E0B6E410EB3
:100E46000C6EFBEC10F005C094F006C095F007C0E0
:100E560096F008C097F000018A4B8B2B74518A5D7F
:100E66008B51800A3F6E7551800A3F58D8A03EEFDD
:100E760007F040EF07F0B6EF06F094C013F095C008
:100E860014F096C015F097C016F0000E176E000EFF
:100E9600186EA00E196E400E1A6EE6EC0EF013C018
:100EA60086F014C087F015C088F016C089F082C09D
:100EB6002CF083C02DF084C02EF085C02FF086C0A4
:100EC60030F087C031F088C032F089C033F0F6ECDC
:100ED60015F0D8B071EF07F073EF07F07EEF07F06B
:100EE600000E0001866F000E876F000E886F000EE1
:100EF600896FA7EF07F082C005F083C006F084C0B3
:100F060007F085C008F086C009F087C00AF088C0DF
:100F16000BF089C00CF054EC19F0D8A095EF07F04F
:100F260097EF07F0A7EF07F0000178B19DEF07F004
:100F36009FEF07F0A7EF07F0000E866F000E876F92
:100F4600000E886F000E896F8CC005F08DC006F00C
:100F56008EC007F08FC008F086C009F087C00AF07F
:100F660088C00BF089C00CF086EC0CF005C082F04E
:100F760006C083F007C084F008C085F060C094F016
:100F860061C095F062C096F063C097F0650E0001EF
:100F96007E19D8B4D1EF07F0D3EF07F0D9EF07F0F9
:100FA60090C076F091C077F0DDEF07F0000E776F16
:100FB600000E766F000E736F000E726F000E716F6B
:100FC600000E706F000E8B6F000E8A6FD9EF08F05F
:100FD60082C005F083C006F084C007F085C008F023
:100FE60094C009F095C00AF096C00BF097C00CF0BB
:100FF600FBEC10F005C01EF006C01FF007C020F085
:1010060008C021F0C8EC12F01EC086F01FC087F0A1
:1010160020C088F021C089F086C005F087C006F0A0
:1010260088C007F089C008F073EC15F005C078F0A9
:1010360006C079F056B822EF08F024EF08F042EF28
:1010460008F0000178517911D8A42CEF08F02EEFA2
:1010560008F042EF08F0670E8119D8A435EF08F0C2
:1010660037EF08F042EF08F077BF3EEF08F03CEFAD
:1010760008F042EF08F0704B712B8DEF08F000017D
:1010860072517311D8A44AEF08F04CEF08F076EFCE
:1010960008F077BF53EF08F051EF08F076EF08F04D
:1010A600000E9225D96E010E9321DA6E2E0EDF6E9A
:1010B600924B932B7F07D8A08007000E736F010E0B
:1010C600726F76EF08F0000E9225D96E010E93210D
:1010D600DA6E300EDF6E924B932B7F07D8A0800717
:1010E6007007D8A0710770517111D8A47DEF08F070
:1010F6007FEF08F066EF08F0000E9225D96E010E1C
:101106009321DA6E7851300FDF6E924B932B7F0767
:10111600D8A0800782C02CF083C02DF084C02EF0AA
:1011260085C02FF094C017F095C018F096C019F03E
:1011360097C01AF086C013F087C014F088C015F067
:1011460089C016F0E6EC0EF013C030F014C031F092
:1011560015C032F016C033F069EC1BF02CC082F0DB
:101166002DC083F02EC084F02FC085F094C005F00A
:1011760095C006F096C007F097C008F0000E096EFD
:10118600000E0A6E200E0B6E410E0C6EFBEC10F07C
:1011960005C094F006C095F007C096F008C097F019
:1011A60000017607D8A077078A4B8B2B74518A5D8E
:1011B6008B51800A3F6E7551800A3F58D8B0E6EFD2
:1011C60008F0E8EF08F0F6EF08F093BFF4EF08F048
:1011D600935109E14B0E925DD8A0F4EF08F0F6EFBB
:1011E60008F0EBEF07F072517311D8A4FDEF08F089
:1011F600FFEF08F010EF09F056A804EF09F006EF2C
:1012060009F010EF09F0000E9225D96E010E932118
:10121600DA6E2E0EDF6E924B932B000E9225D96E50
:10122600010E9321DA6E000EDF6E650E7E19D8A4CC
:101236001FEF09F021EF09F0CEEF04F0000E8B6FDF
:101246004F0E8A6F000E8A25D96E010E8B21DA6E3B
:10125600000EDF6E000E7B6F000E7A6F91BF38EFC7
:1012660009F036EF09F040EF09F0000E7B6F010E32
:101276007A6F906D911FD8B0912B000E7D6F020E84
:101286007C6F71EF09F08A07D8A08B07000E8A25BC
:10129600D96E010E8B21DA6E90C005F091C006F072
:1012A600000E086E0A0E076EFCEC18F00550300FA3
:1012B600DF6E90C005F091C006F0000E086E0A0EB3
:1012C600076E39EC18F005C090F006C091F00001E9
:1012D6007C07D8A07D077F07D8A080079051911181
:1012E600D8A478EF09F07AEF09F046EF09F07DBF50
:1012F60087EF09F07D5106E17C05D8B085EF09F04E
:1013060087EF09F046EF09F08A07D8A08B077A51D4
:101316007B11D8A491EF09F093EF09F099EF09F04A
:10132600000E6B6F2B0E6A6F9DEF09F0000E6B6F50
:101336002D0E6A6F000E8A25D96E010E8B21DA6E8C
:101346006AC0DFFF7F07D8A080078A07D8A08B076F
:10135600BF0E3F6EFF0E406E3E50416E426A3F50DA
:1013660041264050422242500AE11A0E415CD8A062
:10137600BFEF09F0C2EF09F0010EC3EF09F0000E4E
:101386006E6F6F6B6E516F11D8A4CCEF09F0CEEF74
:1013960009F0D4EF09F0000E6D6F650E6C6FD8EF93
:1013A60009F0000E6D6F450E6C6F000E8A25D96E22
:1013B600010E8B21DA6E6CC0DFFF7F07D8A0800795
:1013C600000E9225056E010E9321066E000E8A25EB
:1013D600076E010E8B21086EBEEC1AF0CEEF04F0FC
:1013E600120046C0D9FF47C0DAFFDECFF6FFDDCFD9
:1013F600F7FF0800F550250AD8A404EF0AF006EF17
:101406000AF06AEF0CF046C0D9FF47C0DAFFDE2AC1
:10141600000EDD22000E0001DB6F000EDA6FDAC06F
:1014260056F0DBC057F054685568000E996F000EF1
:10143600986F64EF0AF0568046C0D9FF47C0DAFFBE
:10144600DE2A000EDD2264EF0AF056821FEF0AF054
:1014560056841FEF0AF056861FEF0AF056881FEFD4
:101466000AF0000E996F010E986F64EF0AF046C0FD
:10147600D9FF47C0DAFFDECFF6FFDDCFF7FF080062
:10148600F5504A6E4B6A4B50000AD8B44DEF0AF03D
:1014960034EF0AF04A50200AD8B42EEF0AF0030AB5
:1014A600D8B431EF0AF0080AD8B42BEF0AF0060ACE
:1014B600D8B41EEF0AF01D0AD8B428EF0AF034EFAC
:1014C6000AF098519911D8B46BEF0AF06DEF0AF053
:1014D6003AEF0AF056A072EF0AF074EF0AF075EFD1
:1014E6000AF0569246C0D9FF47C0DAFFDECFF6FFB4
:1014F600DDCFF7FF0800F5502E0AD8A485EF0AF0D5
:1015060087EF0AF005EF0BF0000E556E000E546ED5
:1015160046C0D9FF47C0DAFFDE2A000EDD2246C0EC
:10152600D9FF47C0DAFFDECFF6FFDDCFF7FF0800B1
:10153600F5502A0AD8A4A2EF0AF0A4EF0AF0C1EFE8
:101546000AF046C0D9FF47C0DAFFDE2A000EDD22C8
:1015560048C0D9FF49C0DAFFDFCF4AF0020EDE26C7
:10156600DFCF4BF0000EDD224AC0D9FF4BC0DAFFB9
:10157600DECF54F0DDCF55F005EF0BF046C0D9FFB6
:1015860047C0DAFFDECF0CF0DDCF0DF0ABEC14F088
:101596000CC054F00DC055F0D8EF0AF046C0D9FF84
:1015A60047C0DAFFDE2A000EDD22D00E4A6EFF0E9D
:1015B6004B6E46C0D9FF47C0DAFFDECFF6FFDDCF60
:1015C600F7FF0800F5504C6E4D6A4A504C264B50BA
:1015D6004D224D500AE10A0E4C5CD8A0F5EF0AF0F8
:1015E600F8EF0AF0010EF9EF0AF0000E00019A6F0B
:1015F6009B6B9A519B11D8A403EF0BF005EF0BF0F0
:10160600D1EF0AF046C0D9FF47C0DAFFDECFF6FFBA
:10161600DDCFF7FF0800F5500B6E0C6A8EEC1AF062
:101626000B500001A26FA251D8B41CEF0BF01EEFB5
:101636000BF058EF0BF046C0D9FF47C0DAFFDECFFC
:101646004AF0DDCF4BF0010E4A26000E4B224AC06F
:10165600F6FF4BC0F7FF0800F5500B6E0C6A8EECD8
:101666001AF00B500001A36FA351D8B43DEF0BF055
:101676003FEF0BF058EF0BF046C0D9FF47C0DAFF3B
:10168600DECF4AF0DDCF4BF0020E4A26000E4B228B
:101696004AC0F6FF4BC0F7FF0800F5500B6E0C6A08
:1016A6008EEC1AF00B500001A46F660EA219D8A496
:1016B6005FEF0BF061EF0BF0A1EF0BF046C0D9FF27
:1016C60047C0DAFFDECFF6FFDDCFF7FF0800F5CF24
:1016D600A5F046C0D9FF47C0DAFFDE2A000EDD229C
:1016E60048C0D9FF49C0DAFFDFCF4AF0040EDE2634
:1016F600DFCF4BF0000EDD224AC0D9FF4BC0DAFF28
:10170600DECF9EF0DECF9FF0DECFA0F0DECFA1F0E1
:1017160044C038F045C039F09EC03AF09FC03BF057
:10172600A0C03CF0A1C03DF0A5C03EF01BEC04F00B
:1017360038C044F039C045F085EF0CF0A20E056EB6
:10174600000E066E310E076E080E086E000E0A6E4B
:10175600020E096E69EC17F005500610D8A4B6EF14
:101766000BF0B8EF0BF034EF0CF046C0D9FF47C0D2
:10177600DAFFDECF4AF0DDCF4BF0010E4A26000E2F
:101786004B224AC0F6FF4BC0F7FF0800F5CFA5F085
:10179600BF0E4A6EFF0E4B6E46C0D9FF47C0DAFF3A
:1017A600DECFF6FFDDCFF7FF0800F5504C6E4D6A31
:1017B6004A504C264B504D224D500AE11A0E4C5CB5
:1017C600D8A0E8EF0BF0EBEF0BF0010EECEF0BF00F
:1017D600000E00019C6F9D6B9C519D11D8B4F6EFD5
:1017E6000BF0F8EF0BF012EF0CF048C0D9FF49C030
:1017F600DAFFDFCF4AF0040EDE26DFCF4BF0000E15
:10180600DD224AC0D9FF4BC0DAFFDECF9EF0DECF25
:101816009FF0DECFA0F0DECFA1F02AEF0CF048C09B
:10182600D9FF49C0DAFFDFCF4AF0040EDE26DFCF4C
:101836004BF0000EDD224AC0D9FF4BC0DAFFDECFE7
:101846009EF0DECF9FF0DECFA0F0DECFA1F0020E3D
:1018560046C0D9FF47C0DAFFDE26000EDD228BEF39
:101866000BF046C0D9FF47C0DAFFDECFF6FFDDCF6B
:10187600F7FF0800F550250AD8A444EF0CF046EF10
:101886000CF05DEF0CF046C0D9FF47C0DAFFDE2A48
:10189600000EDD22000E066E250E056E44C007F012
:1018A60045C008F0D4EC17F0000E456E010E446EEC
:1018B60085EF0CF046C0D9FF47C0DAFFDE2A000EDE
:1018C600DD22000E456E000E446E85EF0CF046C01C
:1018D600D9FF47C0DAFFDECFF6FFDDCFF7FF0800FE
:1018E600F550056E066A44C007F045C008F0D4EC12
:1018F60017F046C0D9FF47C0DAFFDE2A000EDD2208
:1019060057EF0CF012000850800B116E0850082497
:10191600136E07AE91EF0CF093EF0CF094EF0CF012
:1019260013801350D8B49AEF0CF09CEF0CF0B1EF83
:101936000CF01328D8A4A2EF0CF0A4EF0CF0ACEF37
:101946000CF0000E056E000E066E000E076E000E01
:10195600086E078E000E086EB9EF0CF0000E056ECD
:10196600000E066E000E076E000E086E0C50800B01
:10197600126E11501218D8B4C3EF0CF0C5EF0CF06C
:10198600C6EF0CF0118C0C500C24126E0BAECEEF81
:101996000CF0D0EF0CF0D1EF0CF012801250D8B44E
:1019A600D7EF0CF0D9EF0CF0EEEF0CF01228D8A41C
:1019B600DFEF0CF0E1EF0CF0E9EF0CF0000E096E32
:1019C600000E0A6E000E0B6E000E0C6E0B8E000ED5
:1019D6000C6EF6EF0CF0000E096E000E0A6E000E8D
:1019E6000B6E000E0C6E1350125CD8B0FDEF0CF0AF
:1019F600FFEF0CF026EF0DF011AC04EF0DF006EF43
:101A06000DF008EF0DF0800E111A13C014F012C07D
:101A160013F014C012F005C014F009C005F014C08C
:101A260009F006C014F00AC006F014C00AF007C098
:101A360014F00BC007F014C00BF008C014F00CC073
:101A460008F014C00CF0000E146E135012C00DF006
:101A56000E6A0D5E000E0E5A0EBE3BEF0DF00E50D6
:101A660009E11A0E0D5CD8A03BEF0DF03DEF0DF02D
:101A760074EF0DF00550061007100810D8A446EFB5
:101A86000DF049EF0DF0010E4AEF0DF0000E146E49
:101A9600000E056E000E066E000E076E000E086E36
:101AA60012C013F07DEF0DF014A05CEF0DF05EEFA9
:101AB6000DF064EF0DF0D89014300109146E66EF46
:101AC6000DF0D890143205A06BEF0DF06DEF0DF010
:101AD6006EEF0DF0148E08340832073206320532E6
:101AE600132A1250135CD8A07BEF0DF07DEF0DF09A
:101AF60057EF0DF011BC82EF0DF084EF0DF0C4EF3F
:101B06000DF01350D8A48AEF0DF08CEF0DF096EF80
:101B16000DF0000E056E000E066E000E076E000E2E
:101B2600086EE5EF0EF0095005260A5006220B5006
:101B360007220C50082208A0A3EF0DF0A5EF0DF028
:101B460051EF0EF014A0AAEF0DF0ACEF0DF0B2EFCE
:101B56000DF0D89014300109146EB4EF0DF0D89042
:101B6600143205A0B9EF0DF0BBEF0DF0BCEF0DF090
:101B7600148E08340832073206320532132A51EF22
:101B86000EF00950055C0A5006580B5007580850CD
:101B9600800A0D6E0C50800A0D58D8B0D5EF0DF0A6
:101BA600D7EF0DF002EF0EF00550095C0D6E0650F2
:101BB6000A580E6E07500B580F6E08500C58106ED0
:101BC600FF0E0D24056EFF0E0E20066EFF0E0F2073
:101BD600076EFF0E1020086E800E111A146C14503A
:101BE600D8A4F8EF0DF0FAEF0DF00AEF0EF0010EA3
:101BF6000526000E0622072208220AEF0EF00950DB
:101C0600055E0A50065A0B50075A0C50085A0550E2
:101C1600061007100810D8A413EF0EF015EF0EF0FB
:101C26004AEF0EF01450D8A41BEF0EF01DEF0EF085
:101C36004AEF0EF0000E056E000E066E000E076EE1
:101C4600000E086EE5EF0EF0D8900536063607361C
:101C5600083614AE31EF0EF033EF0EF034EF0EF01F
:101C6600058014A039EF0EF03BEF0EF03FEF0EF0BB
:101C7600D880143641EF0EF0D89014361350D8B4ED
:101C860047EF0EF049EF0EF04AEF0EF0130607AEDF
:101C96004FEF0EF051EF0EF027EF0EF0000E126E22
:101CA60014AE58EF0EF05AEF0EF072EF0EF014C0AD
:101CB6000DF07F0E0D16D8B463EF0EF065EF0EF043
:101CC60069EF0EF0010E126E72EF0EF005A06EEFC8
:101CD6000EF070EF0EF072EF0EF065EF0EF0125090
:101CE600D8B478EF0EF07AEF0EF0A5EF0EF0010EF5
:101CF6000526000E06220722082208A085EF0EF010
:101D060087EF0EF0A5EF0EF005C00DF006C00EF041
:101D160007C00FF008C010F0103410320F320E3228
:101D26000D320DC005F00EC006F00FC007F010C052
:101D360008F01328D8B4A2EF0EF0A4EF0EF0A5EF2A
:101D46000EF0132A1328D8B4ABEF0EF0ADEF0EF059
:101D5600B5EF0EF01350D8A4B3EF0EF0B5EF0EF0BA
:101D6600C7EF0EF0000E056E000E066E000E076E33
:101D7600000E086E1350D8A4C3EF0EF0C5EF0EF098
:101D8600C7EF0EF0000E116E13A0CCEF0EF0CEEFE3
:101D96000EF0D1EF0EF0078ED2EF0EF0079ED89020
:101DA6001330086E11AEDAEF0EF0DCEF0EF0DDEF59
:101DB6000EF0088E05C005F006C006F007C007F055
:101DC60008C008F012001650800B1F6E165016241D
:101DD600256E15AEF1EF0EF0F3EF0EF0F4EF0EF008
:101DE60025802550D8B4FAEF0EF0FCEF0EF00FEF79
:101DF6000FF02528D8A402EF0FF004EF0FF00CEF38
:101E06000FF0000E136E000E146E000E156E000E0F
:101E1600166E158E17EF0FF0000E136E000E146E71
:101E2600000E156E000E166E1A50800B1F1A1A50F1
:101E36001A24206E19AE22EF0FF024EF0FF025EFD3
:101E46000FF020802050D8B42BEF0FF02DEF0FF0BD
:101E560040EF0FF02028D8A433EF0FF035EF0FF046
:101E66003DEF0FF0000E176E000E186E000E196E85
:101E7600000E1A6E198E48EF0FF0000E176E000E48
:101E8600186E000E196E000E1A6E2050D8B44EEF62
:101E96000FF050EF0FF058EF0FF02550D8A456EF83
:101EA6000FF058EF0FF062EF0FF0000E136E000EFA
:101EB600146E000E156E000E166EFAEF10F0195025
:101EC6001302F3CF2AF0F4CF2BF02A50216E226AA8
:101ED600236A246A2B50266E276A286A296A1850B4
:101EE6001402F3CF2AF0F4CF2BF02A502126000E4D
:101EF6002222232224222B502626000E27222822A5
:101F0600292217501502F3CF2AF0F4CF2BF02A50CE
:101F16002126000E2222232224222B502626000EC2
:101F260027222822292223C024F022C023F021C000
:101F360022F0216A17501402F3CF2AF0F4CF2BF0C7
:101F46002A5021262B502222000E2322000E242264
:101F560018501302F3CF2AF0F4CF2BF02A50212683
:101F66002B502222000E2322000E242223C024F00E
:101F760022C023F021C022F0216A17501302F3CFAA
:101F86002AF0F4CF2BF02A5021262B502222000EC5
:101F96002322000E242219501402F3CF2AF0F4CF84
:101FA6002BF02A5026262B502722000E2822000E20
:101FB600292218501502F3CF2AF0F4CF2BF02A501D
:101FC60026262B502722000E2822000E29221950E1
:101FD6001502F3CF2AF0F4CF2BF02A501B6E2B50AC
:101FE6001C6E1D6A1E6A1DC01EF01CC01DF01BC0A3
:101FF6001CF01B6A1B5026261C5027221D50282227
:102006001E50292221C01BF022C01CF023C01DF047
:1020160024C01EF0190E15EF10F0D8901E321D3296
:102026001C321B32E82E10EF10F01B5026261C50D7
:1020360027221D5028221E50292223C024F022C008
:1020460023F021C022F0216A205025C01BF01C6A13
:102056001B26000E1C22820E1B242A6EFF0E1C203D
:102066002B6E4BEF10F0D8902636273628362936B9
:1020760024AE40EF10F042EF10F043EF10F0268050
:10208600D89021362236233624362A06D8A02B06A7
:1020960028AE50EF10F052EF10F036EF10F0000EB1
:1020A600206E24AE59EF10F05BEF10F07FEF10F0CA
:1020B600FF0E21141B6EFF0E22141C6EFF0E23143E
:1020C6001D6E7F0E24141E6E1B501C101D101E103C
:1020D600D8B470EF10F072EF10F076EF10F0010E3A
:1020E600206E7FEF10F026A07BEF10F07DEF10F052
:1020F6007FEF10F072EF10F02050D8B485EF10F09B
:1021060087EF10F0ABEF10F0010E2626000E272207
:102116002822292229A092EF10F094EF10F0ABEFBD
:1021260010F026C01BF027C01CF028C01DF029C0E7
:102136001EF01E341E321D321C321B321BC026F00E
:102146001CC027F01DC028F01EC029F02A4A2B2AE1
:102156002BBEB6EF10F02B5008E12A28D8A0B6EF18
:1021660010F0B8EF10F0C2EF10F0000E266E000E61
:10217600276E800E286E7F0E296EF0EF10F02BBEB4
:10218600CFEF10F02B5006E12A04D8B0CDEF10F0B7
:10219600CFEF10F0DBEF10F0000E266E000E276E6C
:1021A600000E286E000E296E000E1F6EF0EF10F066
:1021B6002AC025F0FF0E2616FF0E27167F0E2816BC
:1021C600000E291625A0EAEF10F0ECEF10F0EDEF67
:1021D60010F0288ED8902530296E1F50291226C05F
:1021E60013F027C014F028C015F029C016F012000D
:1021F6000850800B156E085008241C6E07AE06EFBB
:1022060011F008EF11F009EF11F01C801C50D8B442
:102216000FEF11F011EF11F026EF11F01C28D8A4E2
:1022260017EF11F019EF11F021EF11F0000E056E06
:10223600000E066E000E076E000E086E078E000E6C
:10224600086E2EEF11F0000E056E000E066E000EE3
:10225600076E000E086E0C50800B151A0C500C24DD
:102266001D6E0BAE39EF11F03BEF11F03CEF11F0A4
:102276001D801D50D8B442EF11F044EF11F059EF14
:1022860011F01D28D8A44AEF11F04CEF11F054EFCD
:1022960011F0000E096E000E0A6E000E0B6E000E97
:1022A6000C6E0B8E000E0C6E61EF11F0000E096EB7
:1022B600000E0A6E000E0B6E000E0C6E09500A1010
:1022C6000B100C10D8A46AEF11F06CEF11F084EF2C
:1022D60011F0000E056E000E066E000E076E000E63
:1022E600086E800E07127F0E08121550081205C0E0
:1022F60005F006C006F007C007F008C008F0C7EFF3
:1023060012F01C50D8A48AEF11F08CEF11F096EF62
:1023160011F0000E056E000E066E000E076E000E22
:10232600086EC7EF12F01D501CC00DF00E6A0D5E50
:10233600000E0E5A7F0E0D24166E000E0E20176E1E
:1023460005C011F006C012F007C013F008C014F063
:10235600000E056E000E066E000E076E000E086E6D
:10236600000E186E000E196E000E1A6E000E1B6E11
:10237600000E1D6EF7EF11F01D50D8B4C5EF11F029
:10238600C7EF11F0DEEF11F0D89011361236133682
:102396001436D89005360636073608361BAED6EF05
:1023A60011F0D8EF11F0D9EF11F00580D89018365A
:1023B60019361A361B360950115C0A5012580B5042
:1023C60013580C501458D8A0EBEF11F0EDEF11F0A4
:1023D600F6EF11F01B8C0950115E0A50125A0B5081
:1023E600135A0C50145A1D2A190E1D64FDEF11F0D4
:1023F600FFEF11F0BFEF11F011501210131014106F
:10240600D8B408EF12F00AEF12F022EF12F018809B
:1024160022EF12F0D89005360636073608361BAE80
:1024260017EF12F019EF12F01AEF12F00580D8909C
:10243600183619361A361B361606D8A0170607AEF2
:1024460027EF12F029EF12F00DEF12F0000E1D6EBD
:102456001BAE30EF12F032EF12F056EF12F0FF0E15
:1024660018140D6EFF0E19140E6EFF0E1A140F6E51
:102476007F0E1B14106E0D500E100F101010D8B4D6
:1024860047EF12F049EF12F04DEF12F0010E1D6EFC
:1024960056EF12F005A052EF12F054EF12F056EF7D
:1024A60012F049EF12F01D50D8B45CEF12F05EEF57
:1024B60012F082EF12F0010E0526000E0622072208
:1024C600082208A069EF12F06BEF12F082EF12F00B
:1024D60005C00DF006C00EF007C00FF008C010F0E2
:1024E600103410320F320E320D320DC005F00EC010
:1024F60006F00FC007F010C008F0164A172A17BEDC
:102506008DEF12F0175008E11628D8A08DEF12F0C3
:102516008FEF12F09AEF12F0000E176E1668000E8B
:10252600056E000E066E000E076E000E086E17BED4
:10253600A7EF12F0175006E11604D8B0A5EF12F077
:10254600A7EF12F0B5EF12F0000E176E000E166E22
:10255600000E056E000E066E000E076E000E086E6B
:10256600000E156E16C01CF01CA0BCEF12F0BEEFDC
:1025760012F0C1EF12F0078EC2EF12F0079ED8904C
:102586001C30086E78EF11F01200CCC02EF0CDC0D2
:102596002FF0CEC030F0CFC031F01EC02EF01FC0DD
:1025A6002FF020C030F021C031F0810E226EFF0ED8
:1025B600236E2EC024F02FC025F030C026F031C087
:1025C60027F0180EECEF12F0D8902732263225327B
:1025D6002432E82EE7EF12F0245022242C6E000E4F
:1025E60023202D6E2DBE01EF13F02D5009E1170E9D
:1025F6002C5CD8A001EF13F003EF13F00DEF13F0EE
:102606001EC01EF01FC01FF020C020F021C021F008
:10261600D0EF13F02DBE12EF13F014EF13F084EF8A
:1026260013F02CC022F0FF0E236EFF0E246E7F0ED9
:10263600256E000E266E226623EF13F02BEF13F0A5
:1026460026342632253224322332222E1EEF13F070
:1026560023C028F024C029F025C02AF026C02BF07C
:1026660028502E14226E29502F14236E2A5030140F
:10267600246E2B503114256E225023102410251061
:10268600D8A448EF13F04AEF13F04CEF13F003EF22
:1026960013F02EC022F02FC023F030C024F031C03A
:1026A60025F0200E5CEF13F0D89025322432233229
:1026B6002232E82E57EF13F0225023102410251053
:1026C600D8B468EF13F06AEF13F072EF13F02850E6
:1026D6002E2629502F222A5030222B503122281CF8
:1026E600226E291C236E2A1C246E2B1C256E22505A
:1026F6002E1623502F162450301625503116C8EFAB
:1027060013F02EC022F02FC023F030C024F031C0C9
:1027160025F0200E94EF13F0D89025322432233280
:102726002232E82E8FEF13F02250231024102510AA
:10273600D8A4A0EF13F0A2EF13F0ACEF13F0000E45
:102746002E6E000E2F6E000E306E000E316EC8EF2C
:1027560013F0D8902E34226E2F34236E3034246E2C
:102766003134256E2250231024102510D8B4BEEF24
:1027760013F0C0EF13F0C8EF13F0000E2E6E000E2C
:102786002F6E800E306EBF0E316E2EC01EF02FC023
:102796001FF030C020F031C021F012000D6E0D5038
:1027A600D8B4D8EF13F0DAEF13F0FCEF13F008BE4D
:1027B600E1EF13F0DFEF13F0FCEF13F005C009F0C3
:1027C60006C00AF007C00BF008C00CF0091E0A1E6E
:1027D6000B1E0C1E092A000E0A220B220C2209C00F
:1027E6000FF00AC010F00BC011F00CC012F004EF8D
:1027F60014F005C00FF006C010F007C011F008C0B5
:1028060012F00550061007100810D8A40DEF14F0AA
:102816000FEF14F019EF14F0000E056E000E066EA1
:10282600000E076E000E086EAAEF14F0960E0E6EDE
:1028360023EF14F00E2AD8901232113210320F32D2
:10284600000E0F14096E000E10140A6E000E1114FD
:102856000B6EFE0E12140C6E09500A100B100C10A3
:10286600D8A438EF14F03AEF14F01DEF14F048EF47
:1028760014F00E2A010E0F26000E1022112212222B
:10288600D8901232113210320F32000E0F14096E28
:10289600000E10140A6E000E11140B6EFF0E1214A9
:1028A6000C6E09500A100B100C10D8A45DEF14F032
:1028B6005FEF14F03CEF14F067EF14F00E06D890BB
:1028C6000F3610361136123611BE6CEF14F06EEF5D
:1028D60014F076EF14F0020E0E6074EF14F076EF3B
:1028E60014F061EF14F00EB07BEF14F07DEF14F0EE
:1028F6007EEF14F0119ED8900E320EC009F00A6ACF
:102906000B6A0C6A09C00CF00B6A0A6A096A09505C
:102916000F120A5010120B5011120C5012120D50B9
:10292600D8B498EF14F09AEF14F0A2EF14F008BEA2
:10293600A1EF14F09FEF14F0A2EF14F0128E0FC067
:1029460005F010C006F011C007F012C008F0120022
:10295600000E1A6E000E196E000E136E000E126E29
:10296600B7EF14F00C4A0D2A010E186E0CC0F6FFD4
:102976000DC0F7FF0800F550200AD8B4C5EF14F0D3
:10298600C7EF14F0E4EF14F0F70E0E6EFF0E0F6EA5
:102996000CC0F6FF0DC0F7FF0800F550106E116A67
:1029A6000E5010260F501122115009E1050E105C31
:1029B600D8A0E0EF14F0E2EF14F0E4EF14F0000E0C
:1029C600186E18C014F0156A14501510D8A4EEEF3E
:1029D60014F0F0EF14F0B5EF14F0FAEF14F0000E67
:1029E600136E010E126E0C4A0D2A2FEF15F00CC055
:1029F600F6FF0DC0F7FF0800F5500E6E0F6A0F5078
:102A0600000AD8B409EF15F02FEF15F00E502B0A77
:102A1600D8B4F6EF14F0060AD8B4F2EF14F02FEF9C
:102A260015F019C005F01AC006F0000E086E0A0E61
:102A3600076E8AEC1CF00CC0F6FF0DC0F7FF08000D
:102A4600F550055E000E065A300E0524196E000E6E
:102A560006201A6EF6EF14F0D00E0E6EFF0E0F6EF5
:102A66000CC0F6FF0DC0F7FF0800F550106E116A96
:102A76000E5010260F50112211500AE10A0E105C5A
:102A8600D8A048EF15F04BEF15F0010E4CEF15F0FE
:102A9600000E166E176A16501710D8A455EF15F0CB
:102AA60057EF15F014EF15F012501310D8A45EEF7F
:102AB60015F060EF15F06EEF15F019C00EF01AC0A4
:102AC6000FF00E1E0F1E0E4A0F2A0EC00CF00FC07E
:102AD6000DF072EF15F019C00CF01AC00DF01200CF
:102AE600073408340E6E0E50D8A47CEF15F07EEF36
:102AF60015F088EF15F0000E056E000E066E000E3E
:102B0600076E000E086EF5EF15F005C009F006C059
:102B16000AF007C00BF008C00CF0200E98EF15F075
:102B2600D8900C320B320A320932E82E93EF15F0A8
:102B360009500D6E078EFF0E0516FF0E0616FF0EC8
:102B46000716000E0816960E0E5E0EBEAFEF15F0B7
:102B5600ADEF15F0C5EF15F00E50800A970FD8B0FF
:102B6600B7EF15F0B9EF15F0BBEF15F07EEF15F0E6
:102B7600D89008320732063205320E3EBBEF15F00A
:102B8600DDEF15F01F0E0E64CBEF15F0CDEF15F04F
:102B9600D5EF15F07EEF15F0D890053606360736D8
:102BA60008360E060E50D8A4DBEF15F0DDEF15F053
:102BB600CFEF15F00D50D8B4E3EF15F0E5EF15F0B3
:102BC600EDEF15F0081E071E061E056C000E062208
:102BD6000722082205C005F006C006F007C007F068
:102BE60008C008F01200000E2C14346E000E2D14CE
:102BF600356E800E2E14366E7F0E2F14376E3450BF
:102C0600351036103710D8A40BEF16F00DEF16F06E
:102C160015EF16F0000E2C6E000E2D6E000E2E6EA9
:102C2600000E2F6E000E3014346E000E3114356E09
:102C3600800E3214366E7F0E3314376E34503510D4
:102C460036103710D8A42AEF16F02CEF16F034EF12
:102C560016F0000E306E000E316E000E326E000E53
:102C6600336E2FAE39EF16F03BEF16F044EF16F049
:102C76002C6C2D1ED8B02D2A2E1ED8B02E2A800ED2
:102C86002F5633AE49EF16F04BEF16F054EF16F011
:102C9600306C311ED8B0312A321ED8B0322A800E9E
:102CA6003356000E2C1A000E2D1A000E2E1A800E08
:102CB6002F1A000E301A000E311A000E321A800E2C
:102CC600331A30502C5C31502D5832502E58335018
:102CD6002F58D8B071EF16F073EF16F076EF16F0A6
:102CE600D89077EF16F0D8801200D0C00FF0D1C080
:102CF60010F0D2C011F0D3C012F005C00FF006C01C
:102D060010F007C011F008C012F00FC009F010C093
:102D16000AF011C00BF012C00CF0180E98EF16F066
:102D2600D8900C320B320A320932E82E93EF16F0A5
:102D360009500D6E0E6A0D500E10D8A4A5EF16F0B0
:102D4600A7EF16F0C7EF16F0D8900F34096E1034BF
:102D56000A6E11340B6E12340C6E09500A100B10E9
:102D66000C10D8A4B9EF16F0BBEF16F0C1EF16F0B1
:102D7600000E066E020E056EF6EF16F0000E066EDB
:102D8600030E056EF6EF16F00D280E10D8A4CEEF42
:102D960016F0D0EF16F0F2EF16F00FC009F010C0E3
:102DA6000AF011C00BF012C00CF0090ED8900936CB
:102DB6000A360B360C36E82ED9EF16F009500A10F3
:102DC6000B100C10D8B4EAEF16F0EDEF16F0010E6A
:102DD600EEEF16F0000E056E066AF6EF16F0000E20
:102DE600066E040E056E1200000E956E1F0EB0ECF8
:102DF6001CF0CAEC1CF0ECEC1AF09DEC1CF0130E67
:102E0600076E080E086E3EEC1CF01A0E0001BB6F32
:102E16005E0EBA6F6E0EE82EFED7BA2FFCD7BB2F0A
:102E2600FAD700F0000EAEEC1BF005C0ECF006C0C1
:102E3600EDF0ECC005F0EDC006F0076A086A000E7A
:102E4600D1EC13F005C013F006C014F007C015F05E
:102E560008C016F00A0E176E280E186EA00E196E10
:102E66003B0E1A6EE6EC0EF013C0D4F014C0D5F08B
:102E760015C0D6F016C0D7F0DC0E0001A86F000E04
:102E8600A96F010EAA6F080EAB6FD4C0ACF0D5C007
:102E9600ADF0D6C0AEF0D7C0AFF017EC1BF0DC0E2D
:102EA600066E000E076E72EC1CF00D0E0001BB6F75
:102EB600AF0EBA6FB60EE82EFED7BA2FFCD7BB2FD1
:102EC600FAD700F015EF17F013EF00F005C00CF07D
:102ED60006C00DF007C00EF008C00FF00906D8A016
:102EE6000A06092806E10A28D8A47CEF17F07EEF27
:102EF60017F08BEF17F0000E066E000E056ED3EF7F
:102F060017F00C4A0D2A0E4A0F2A0906D8A00A06FF
:102F16000CC0D9FF0DC0DAFFDF50D8B495EF17F01B
:102F260097EF17F0C2EF17F00EC0F6FF0FC0F7FFCE
:102F36000800F5500009D8B4A3EF17F0A5EF17F075
:102F4600C2EF17F009500A10D8B4ACEF17F0AEEF85
:102F560017F0C2EF17F00CC0D9FF0DC0DAFFDF5033
:102F66000B6E0EC0F6FF0FC0F7FF0800F5500B18EA
:102F7600D8B4C0EF17F0C2EF17F084EF17F00CC00B
:102F8600D9FF0DC0DAFFDF500B6E0EC0F6FF0FC083
:102F9600F7FF0800F5500B5C056E066AD8A006061A
:102FA600120007500810D8B4DBEF17F0DDEF17F06A
:102FB600E6EF17F007500810D8A4E4EF17F0E6EF95
:102FC60017F0EBEF17F00550CEEC1CF038EF18F0C9
:102FD60020EE04F00750D9260850DA22DE50DE1023
:102FE600D8B4F8EF17F0FAEF17F015EF18F020EE57
:102FF60004F00750D9260850DA2210EE02F00750E6
:10300600E1260850E222DE50E65CE650800A0D6EAC
:10301600DE50800A0D58D8B013EF18F015EF18F0EF
:1030260038EF18F020EE02F00750D9260850DA22C1
:10303600DECF09F0DDCF0AF007C0D9FF08C0DAFFFE
:10304600DECF0BF0DDCF0CF009500B24D96E0A5001
:103056000C20DA6E05C0DFFF20EE02F00750D926FD
:103066000850DA22DE2A000EDD221200000E0A6E59
:1030760008BE42EF18F040EF18F048EF18F0076C62
:10308600081ED8B0082A010E0A6E06BE4FEF18F0C9
:103096004DEF18F055EF18F0056C061ED8B0062A4D
:1030A600010E0A1A000E0C6E000E0B6E0750081069
:1030B600D8B460EF18F062EF18F08AEF18F0010E3E
:1030C600096E6AEF18F0D89007360836092A08AE56
:1030D6006FEF18F071EF18F066EF18F0D8900B3616
:1030E6000C360750055C08500658D8A07DEF18F03E
:1030F6007FEF18F084EF18F00750055E0850065A67
:103106000B80D89008320732092E71EF18F00A505A
:10311600D8B490EF18F092EF18F096EF18F00B6C09
:103126000C1ED8B00C2A0BC005F00CC006F012001D
:1031360056A0A0EF18F0A2EF18F0ACEF18F017C0E9
:103146000EF018C00FF015C010F016C011F08CEC80
:103156001BF01ABEB1EF18F0B3EF18F0B9EF18F084
:1031660019C01EF01AC01FF0BDEF18F0000E1F6E3A
:10317600000E1E6E000E1D6E000E1C6ECFEF18F0B8
:10318600000E066E200E056E15C007F016C008F07C
:10319600D4EC17F01C4A1D2A1E501C5C1D50800AD8
:1031A6001B6E1F50800A1B58D8A0DCEF18F0DEEF0C
:1031B60018F0C3EF18F056B0E3EF18F0E5EF18F08B
:1031C600EFEF18F017C00EF018C00FF015C010F092
:1031D60016C011F08CEC1BF017C005F018C006F0F5
:1031E60023EC1CF01E500524156E1F500620166E8B
:1031F6001200000E0A6E06BE05EF19F003EF19F075
:103206000BEF19F0056C061ED8B0062A010E0A6EE1
:1032160008BE12EF19F010EF19F016EF19F0076C4F
:10322600081ED8B0082A07500810D8B41DEF19F0A8
:103236001FEF19F043EF19F0010E096E27EF19F091
:10324600D89007360836092A08AE2CEF19F02EEF6B
:1032560019F023EF19F00750055C08500658D8A05E
:1032660037EF19F039EF19F03DEF19F00750055E09
:103276000850065AD89008320732092E2EEF19F058
:103286000A50D8B449EF19F04BEF19F04FEF19F087
:10329600056C061ED8B0062A05C005F006C006F065
:1032A6001200000E05140D6E000E06140E6E800E32
:1032B60007140F6E7F0E0814106E0D500E100F10AF
:1032C6001010D8A469EF19F06BEF19F073EF19F02D
:1032D600000E056E000E066E000E076E000E086EDE
:1032E600000E09140D6E000E0A140E6E800E0B14DD
:1032F6000F6E7F0E0C14106E0D500E100F10101066
:10330600D8A488EF19F08AEF19F092EF19F0000EA1
:10331600096E000E0A6E000E0B6E000E0C6E095042
:1033260005180FE10A5006180CE10B50071809E1C1
:103336000C500818D8B4A2EF19F0A4EF19F0A7EFB3
:1033460019F0D890A8EF19F0D88012000600D9CF4E
:1033560002F0DACF03F0300EAE18D8B4B5EF19F09C
:10336600B8EF19F0010EB9EF19F0000E016E310E2B
:10337600AE18D8B4C1EF19F0C4EF19F0010EC5EFBD
:1033860019F0000E0110E8A0CBEF19F0CDEF19F0FF
:10339600D1EF19F0AECF59F0E4EF19F0BC0E582476
:1033A600D96EDA6A000EDA22AECFDFFF582A100E87
:1033B6005864E0EF19F0E2EF19F0E4EF19F0000EAF
:1033C600586E9E9A03C0DAFF02C0D9FF5A921100C6
:1033D600066E06C005F0F00E05168C500F0B051094
:1033E6008C6E8C94070E056E7D0EE82EFED7052E8C
:1033F600FCD700F08C86070E056E7D0EE82EFED7F4
:10340600052EFCD700F08C960F0E8C1606C005F024
:103416000F0E05160538F00B8C128C94070E056EF0
:103426007D0EE82EFED7052EFCD700F08C86070E03
:10343600056E7D0EE82EFED7052EFCD700F08C9685
:103446001200066E06C005F0F00E05168C500F0B26
:1034560005108C6E8C84070E056E7D0EE82EFED749
:10346600052EFCD700F08C86070E056E7D0EE82E25
:10347600FED7052EFCD700F08C960F0E8C1606C0D4
:1034860005F00F0E05160538F00B8C128C84070E0E
:10349600056E7D0EE82EFED7052EFCD700F08C8635
:1034A600070E056E7D0EE82EFED7052EFCD700F022
:1034B6008C96120050C0A6F051C0A7F0000E000175
:1034C600D96F000ED86F7BEF1AF04EC044F04FC094
:1034D60045F0A60E466E000E476E52C048F053C029
:1034E60049F0F4EC09F044500001D8274550D9239F
:1034F600A6C0F6FFA7C0F7FF0800F5500009D8A43C
:1035060087EF1AF089EF1AF068EF1AF0D8C04EF07C
:10351600D9C04FF01200BF0E0D6EFF0E0E6E0BC01F
:103526000FF00CC010F00D500F260E501022105048
:103536000AE11A0E0F5CD8A0A3EF1AF0A6EF1AF054
:10354600010EA7EF1AF0000E116E126A115012103A
:10355600D8B4B0EF1AF0B2EF1AF0B9EF1AF0200EA5
:103566000B100B6E0C500C6EBDEF1AF00BC00BF06F
:103576000CC00CF0120007C00BF008C00CF005C020
:103586000DF006C00EF00B50096E0C500A6E0B4A79
:103596000C2A09C0F6FF0AC0F7FFF86A0DC0D9FF6A
:1035A6000EC0DAFF0D4A0E2A070EF76403D0080094
:1035B600F55005D0F6CFE1FFF7CFE2FFE750DF6E1B
:1035C600DF50D8A4E9EF1AF0EBEF1AF0C6EF1AF0C5
:1035D6001200620E076E660EE82EFED7072EFCD787
:1035E600000E956E300EEBEC19F0210E076E760E7E
:1035F600E82EFED7072EFCD700D0300EEBEC19F0E4
:10360600A60EE82EFED700D0320EEBEC19F0280EEF
:10361600EBEC19F00C0EEBEC19F0010EEBEC19F0DB
:10362600060EEBEC19F01200AC0E0001B26F000EA4
:10363600B36FA8C0B4F0A9C0B5F0000EB76F000E06
:10364600B66F000EB96F000EB86FB40E4E6E000E58
:103656004F6EAAC050F0ABC051F0B20E526E000EC3
:10366600536E5DEC1AF00001B651A825D96EB7511C
:10367600A921DA6E000EDF6E1200010E0B6E200E0F
:1036860005180610D8B44AEF1BF04CEF1BF065EF97
:103696001BF0F70E076EFF0E086E05C009F006C098
:1036A6000AF00750092608500A220A5009E1050EB9
:1036B600095CD8A061EF1BF063EF1BF065EF1BF010
:1036C600000E0B6E0BC005F0066A1200000E301AD3
:1036D600000E311A000E321A800E331A2CC005F075
:1036E6002DC006F02EC007F02FC008F030C009F03C
:1036F60031C00AF032C00BF033C00CF086EC0CF08F
:1037060005C02CF006C02DF007C02EF008C02FF023
:103716001200000E146E000E136E9DEF1BF012C009
:1037260005F0066A10C007F011C008F0D4EC17F0D7
:10373600134A142A13500E24D96E14500F20DA6E31
:10374600DF50126E1250D8A4ABEF1BF0ADEF1BF09A
:1037560092EF1BF01200086E0C0E0864B5EF1BF01A
:10376600B7EF1BF0B9EF1BF0000E086E08C007F0AC
:1037760007460746C2500718C30B0718C26EC28217
:10378600C2B2C8EF1BF0CAEF1BF0C3EF1BF0C3CFEA
:1037960005F0C4CF06F01200BF0E076EFF0E086ECE
:1037A60005C009F006C00AF00750092608500A228B
:1037B6000A500AE11A0E095CD8A0E4EF1BF0E7EF05
:1037C6001BF0010EE8EF1BF0000E056E066A1200F4
:1037D6000550061007100810D8B4F4EF1BF0F6EFEA
:1037E6001BF0FEEF1BF0000E051A000E061A000E67
:1037F600071A800E081A05C005F006C006F007C0B5
:1038060007F008C008F01200D00E076EFF0E086E13
:1038160005C009F006C00AF00750092608500A221A
:103826000A500AE10A0E095CD8A01CEF1CF01FEF33
:103836001CF0010E20EF1CF0000E056E066A120049
:1038460005C007F006C008F02BEF1CF0054A062A53
:1038560005C0D9FF06C0DAFFDF50D8A435EF1CF04B
:1038660037EF1CF029EF1CF00750055C056E085079
:103876000658066E12004AEF1CF007C0F6FF08C095
:10388600F7FF0800F55024EC1AF0074A082A07C08B
:10389600F6FF08C0F7FF0800F5500009D8A456EF58
:1038A6001CF058EF1CF040EF1CF0120001EE00F087
:1038B600500EEE6AE806FDE100EEBCF0320EEE6A4E
:1038C600E806FDE1596A586A576A566A556A546AA3
:1038D6005A905A92000EF86E0001F7EF16F07DEF3F
:1038E6001CF006C0D9FF07C0DAFFDF50BFEC1CF0A2
:1038F600064A072A06C0D9FF07C0DAFFDF50D8A458
:1039060087EF1CF089EF1CF074EF1CF012000550D5
:103916000702F3CF09F0F4CF0AF005500802F3507E
:103926000A2606500702F3500A2609C005F00AC007
:1039360006F01200C150F00B0D09C16ECF0EC11674
:10394600C30EC216C050F80B0509C06EC050C70B97
:103956001009C06EC08EC2801200056E05C0AFFF92
:10396600B896AC94AC98AB8EAC9CAC8AAB9CAB884E
:103976009E9A9D8A9F8A1200056EACA2C5EF1CF026
:10398600C7EF1CF0C0EF1CF005C0ADFF1200D08ED3
:08399600F28CF28E1200120007
:020000040020DA
:08000000FFFFFFFFFFFFFFFF00
:020000040030CA
:0E000000000C181EFF8184FF0FC00FE00F40A0
:00000001FF
