:020000040000FA
:0400000067EF05F0B1
:0D080000004269656E76656E69646F0000E8
:10080E00FEEC04F095EC05F0010E036E080E046E7E
:10081E004CEC05F0010E58EC04F0CAEC04F029EC97
:10082E0005F0000E046E000E036E000E066E000E36
:10083E00056E81EC05F011380F0B0F0B300F91EC9C
:10084E0004F011500F0B300F91EC04F03A0E91ECB6
:10085E0004F010380F0B0F0B300F91EC04F010500A
:10086E000F0B300F91EC04F03A0E91EC04F00F38B0
:10087E000F0B0F0B300F91EC04F00F500F0B300FCE
:10088E0091EC04F0030E086E8A0E076E560EE82EDB
:10089E00FED7072EFCD7082EFAD716EF04F000EF7E
:1008AE0000F0026E02C001F0F00E01168C500F0B1C
:1008BE0001108C6E8C94070E016E7D0EE82EFED705
:1008CE00012EFCD700F08C86070E016E7D0EE82EF1
:1008DE00FED7012EFCD700F08C960F0E8C1602C0A0
:1008EE0001F00F0E01160138F00B8C128C94070ECE
:1008FE00016E7D0EE82EFED7012EFCD700F08C8601
:10090E00070E016E7D0EE82EFED7012EFCD700F0ED
:10091E008C961200026E02C001F0F00E01168C5081
:10092E000F0B01108C6E8C84070E016E7D0EE82E5F
:10093E00FED7012EFCD700F08C86070E016E7D0EC1
:10094E00E82EFED7012EFCD700F08C960F0E8C16DB
:10095E0002C001F00F0E01160138F00B8C128C84C0
:10096E00070E016E7D0EE82EFED7012EFCD700F08D
:10097E008C86070E016E7D0EE82EFED7012EFCD75B
:10098E0000F08C9612000AC002F00F0E02160950EB
:10099E000F0B100DF3500224116E0CC002F00F0E4F
:1009AE0002160B500F0B100DF3500224106E0EC0DA
:1009BE0002F00F0E02160D500F0B100DF350022405
:1009CE000F6EE5EC05F0D00EBBEC05F0C7EC05F0B4
:1009DE00000EBBEC05F00F50BBEC05F01050BBEC5D
:1009EE0005F01150BBEC05F0DCEC05F01200620EC8
:1009FE00036E660EE82EFED7032EFCD7000E956E04
:100A0E00300E58EC04F0210E036E760EE82EFED753
:100A1E00032EFCD700D0300E58EC04F0A60EE82EB4
:100A2E00FED700D0320E58EC04F0280E58EC04F02D
:100A3E000C0E58EC04F0010E58EC04F0060E58ECB7
:100A4E0004F01200E5EC05F0D00EBBEC05F0C7EC9F
:100A5E0005F0000EBBEC05F0D3EC05F0D10EBBECAF
:100A6E0005F0C7EC05F0A3EC05F00F6EC7EC05F032
:100A7E00A3EC05F0106EC7EC05F0A3EC05F0116EBB
:100A8E00AFEC05F0DCEC05F0120058EF05F003C0FA
:100A9E00F6FF04C0F7FF0800F55091EC04F0034A8E
:100AAE00042A03C0F6FF04C0F7FF0800F550000942
:100ABE00D8A464EF05F066EF05F04EEF05F01200D6
:100ACE00DC0EF66E0B0EF76E000EF86E00EE09F0F1
:100ADE0010EE06F00900F5CFEEFFE550E150FAE119
:100AEE00116A106A0F6A000EF86E080EF76E00019A
:100AFE0007EF04F003040410D8A488EF05F08AEF82
:100B0E0005F090EF05F00550C00F58EC04F094EF8F
:100B1E0005F00550800F58EC04F01200310EC86E2F
:100B2E0093809382C78EC79CC68AC650F00B080965
:100B3E00C66E000EC56E12009E96C5869EA6AAEFC4
:100B4E0005F0ACEF05F0A5EF05F09E96C95012002A
:100B5E009E96C58AC5889EA6B7EF05F0B9EF05F03B
:100B6E00B2EF05F09E961200016E01C0C9FF9EA65F
:100B7E00C3EF05F0C5EF05F0BEEF05F09E9612002F
:100B8E009E96C59AC5889EA6CFEF05F0D1EF05F0CB
:100B9E00CAEF05F09E961200C582C5B2D9EF05F0D8
:100BAE00DBEF05F0D4EF05F01200C584C5B4E2EF1B
:100BBE0005F0E4EF05F0DDEF05F01200C580C5B0DD
:100BCE00EBEF05F0EDEF05F0E6EF05F01200313931
:040BDE00323330304E
:020000040020DA
:08000000FFFFFFFFFFFFFFFF00
:020000040030CA
:0E000000000C181EFF8184FF0FC00FE00F40A0
:00000001FF
