:020000040000FA
:040000003AEF00F0E3
:060008000F8200ED05F07F
:100018000F80D8CF02F0E8CF03F0E0CF04F03C0E19
:10002800D66E0A0E0D18D8A41CEF00F01EEF00F0D3
:1000380030EF00F08CB023EF00F026EF00F0010E57
:1000480027EF00F0000EFF0A016E8C500118FE0B1E
:1000580001188C6E000E0D6E0D2AF29404C0E0FF9C
:1000680003C0E8FF02C0D8FF0F90100057EF05F05B
:1008000000526F6E616C642072617A6F6E00484FA7
:070810004C41203A440000B6
:10081800D5EC04F062EC05F04BEC05F00E04D8A41E
:1008280018EF04F01AEF04F038EF04F0000E086E29
:10083800000E076E000E0A6E000E096E37EC05F00A
:100848000E0E076E080E086E1CEC05F00D0E0C6EF1
:10085800AF0E0B6EB60EE82EFED70B2EFCD70C2E65
:10086800FAD700D0020E0E6E020E0E18D8A43FEF73
:1008780004F041EF04F051EF04F0000E086E000E92
:10088800076E000E0A6E000E096E37EC05F0010EB9
:10089800076E080E086E1CEC05F0030E0E18D8A49F
:1008A80058EF04F05AEF04F012EF04F0000E0E6E49
:1008B800010E63EC04F012EF04F03AEF00F0066E5C
:1008C80006C005F0F00E05168C500F0B05108C6E47
:1008D8008C94070E056E7D0EE82EFED7052EFCD7EC
:1008E80000F08C86070E056E7D0EE82EFED7052ECD
:1008F800FCD700F08C960F0E8C1606C005F00F0E74
:1009080005160538F00B8C128C94070E056E7D0EBB
:10091800E82EFED7052EFCD700F08C86070E056E54
:100928007D0EE82EFED7052EFCD700F08C9612001F
:10093800066E06C005F0F00E05168C500F0B05105C
:100948008C6E8C84070E056E7D0EE82EFED7052E64
:10095800FCD700F08C86070E056E7D0EE82EFED7BC
:10096800052EFCD700F08C960F0E8C1606C005F0ED
:100978000F0E05160538F00B8C128C84070E056EC9
:100988007D0EE82EFED7052EFCD700F08C86070ECC
:10099800056E7D0EE82EFED7052EFCD700F08C964E
:1009A8001200620E076E660EE82EFED7072EFCD7E1
:1009B800000E956E300E63EC04F0210E076E760E75
:1009C800E82EFED7072EFCD700D0300E63EC04F0DB
:1009D800A60EE82EFED700D0320E63EC04F0280EE7
:1009E80063EC04F00C0E63EC04F0010E63EC04F00D
:1009F800060E63EC04F012000600020E0E18D8A4CE
:100A080008EF05F00AEF05F00EEF05F0030E0E6E85
:100A1800D59E8C900E50D8A414EF05F016EF05F073
:100A280019EF05F0D58E010E0E6EF2920F9211009D
:100A380028EF05F007C0F6FF08C0F7FF0800F550DB
:100A48009CEC04F0074A082A07C0F6FF08C0F7FF25
:100A58000800F5500009D8A434EF05F036EF05F08A
:100A68001EEF05F0120007040810D8A43EEF05F0A9
:100A780040EF05F046EF05F00950C00F63EC04F0B5
:100A88004AEF05F00950800F63EC04F01200D59A84
:100A9800D596070ED512D58CD59E3C0ED66EF28A09
:100AA800F294F19412000E6A0D6A0F900F92000EE4
:100AB800F86E080EF76E00010CEF04F09380F288D0
:0C0AC800F292F19CD08EF28CF28E1200A3
:020000040020DA
:08000000FFFFFFFFFFFFFFFF00
:020000040030CA
:0E000000000C181EFF8184FF0FC00FE00F40A0
:00000001FF
