:020000040000FA
:0400000013EF00F00A
:06000800118215ED00F06D
:100018001180E0CF02F002C0E0FF1190100058EF0D
:1000280001F00600800ECF6E000ECE6E102A090E6B
:10003800106421EF00F023EF00F026EF00F00F2A04
:10004800000E106E050E0F642CEF00F02EEF00F07E
:1000580031EF00F0000E0F6E0E2A090E0E6437EF16
:1000680000F039EF00F03CEF00F0000E0E6E0D2AA4
:10007800050E0D6442EF00F044EF00F047EF00F08A
:10008800000E0D6E0C2A090E0C644DEF00F04FEFB8
:1000980000F052EF00F0000E0C6E0B2A020E0B1847
:1000A800D8A459EF00F05BEF00F068EF00F0040E01
:1000B8000C18D8A462EF00F064EF00F068EF00F0CD
:1000C800000E0B6E000E0C6E8CB06DEF00F070EF32
:1000D80000F0010E71EF00F0000EFF0A016E8C5067
:1000E8000118FE0B01188C6E9E9011921100000EE3
:1000F800956E2DEC01F081EC01F08BEC01F0000E17
:10010800066E000E056E000E086E000E076E6DEC92
:1001180001F00B50300FF4EC00F00C50300FF4EC01
:1001280000F03A0EF4EC00F00D50300FF4EC00F053
:100138000E50300FF4EC00F03A0EF4EC00F00F50D3
:10014800300FF4EC00F01050300FF4EC00F00D0E0E
:100158000A6EAF0E096EB60EE82EFED7092EFCD732
:100168000A2EFAD700D083EF00F013EF00F0046EE8
:1001780004C003F0F00E03168C500F0B03108C6EA6
:100188008C94070E036E7D0EE82EFED7032EFCD747
:1001980000F08C86070E036E7D0EE82EFED7032E28
:1001A800FCD700F08C960F0E8C1604C003F00F0ECF
:1001B80003160338F00B8C128C94070E036E7D0E19
:1001C800E82EFED7032EFCD700F08C86070E036EB0
:1001D8007D0EE82EFED7032EFCD700F08C96120079
:1001E800046E04C003F0F00E03168C500F0B0310BE
:1001F8008C6E8C84070E036E7D0EE82EFED7032EC0
:10020800FCD700F08C86070E036E7D0EE82EFED715
:10021800032EFCD700F08C960F0E8C1604C003F04A
:100228000F0E03160338F00B8C128C84070E036E26
:100238007D0EE82EFED7032EFCD700F08C86070E25
:10024800036E7D0EE82EFED7032EFCD700F08C96A9
:100258001200620E056E660EE82EFED7052EFCD73C
:10026800000E956E300EBBEC00F0210E056E760E7A
:10027800E82EFED7052EFCD700D0300EBBEC00F0E0
:10028800A60EE82EFED700D0320EBBEC00F0280EEA
:10029800BBEC00F00C0EBBEC00F0010EBBEC00F068
:1002A800060EBBEC00F01200200EF66E030EF76E81
:1002B800000EF86E00EE0BF010EE06F00900F5CF18
:1002C800EEFFE550E150FAE11190119200017BEF49
:1002D80000F005040610D8A474EF01F076EF01F0E1
:1002E8007CEF01F00750C00FBBEC00F080EF01F08D
:1002F8000750800FBBEC00F01200800ECF6E000E8E
:10030800CE6E0F0ECD6E9D809E909F801200D08E77
:0E031800F09CF28CF28E12000203050905081B
:020000040020DA
:08000000FFFFFFFFFFFFFFFF00
:020000040030CA
:0E000000000C181EFF8184FF0FC00FE00F40A0
:00000001FF
