:020000040000FA
:040000001EEF00F0FF
:060008002182BDED01F0B4
:100018002180D8CF01F0E8CF02F0E0CF03F0020E44
:10002800206EF09003C0E0FF02C0E8FF01C0D8FFD7
:100038002190100095EF01F0B0EC01F0000E926EE7
:10004800000E956E000E8C6E899089922004D8A4BB
:1000580030EF00F032EF00F041EF00F08980899234
:1000680014C08CFF070E0D6E580E0C6E5A0EE82E3B
:10007800FED70C2EFCD70D2EFAD7020E2018D8A4C6
:1000880048EF00F04AEF00F02AEF00F0000E0F6E84
:10009800000E0E6E0EC004F00FC005F0000E076EC5
:1000A800640E066EDBEC00F004C01AF005C01BF00D
:1000B8008980100E1A24D96E000E1B20DA6EDF50CC
:1000C8008C6E820E0C6EDE0EE82EFED70C2EFCD740
:1000D80089900EC004F00FC005F0000E076E0A0EDE
:1000E800066EDBEC00F004C01CF005C01DF01DBE60
:1000F80087EF00F01D5009E10A0E1C5CD8A087EFBD
:1001080000F089EF00F097EF00F01CC004F01DC06C
:1001180005F0000E076E0A0E066E3DEC01F004C0F5
:100128001CF005C01DF08982100E1C24D96E000E2B
:100138001D20DA6EDF508C6E820E0C6EDE0EE82EFD
:10014800FED70C2EFCD789920EC004F00FC005F024
:10015800000E076E0A0E066E3DEC01F004C01EF09C
:1001680005C01FF08984100E1E24D96E000E1F20B2
:10017800DA6EDF508C6E820E0C6EDE0EE82EFED725
:100188000C2EFCD789940E4A0F2A0FBED5EF00F02B
:10019800E70E0E5C030E0F58D8A0D5EF00F0D7EF8E
:1001A80000F04EEF00F02AEF00F01EEF00F0000E16
:1001B800096E07BEE4EF00F0E2EF00F0EAEF00F0AE
:1001C800066C071ED8B0072A010E096E05BEF1EFAE
:1001D80000F0EFEF00F0F7EF00F0046C051ED8B068
:1001E800052A010E091A000E0B6E000E0A6E065043
:1001F8000710D8B402EF01F004EF01F02CEF01F082
:10020800010E086E0CEF01F0D89006360736082A62
:1002180007AE11EF01F013EF01F008EF01F0D890ED
:100228000A360B360650045C07500558D8A01FEF55
:1002380001F021EF01F026EF01F00650045E0750AF
:10024800055A0A80D89007320632082E13EF01F0BB
:100258000950D8B432EF01F034EF01F038EF01F073
:100268000A6C0B1ED8B00B2A0AC004F00BC005F0AC
:100278001200000E096E05BE46EF01F044EF01F0D2
:100288004CEF01F0046C051ED8B0052A010E096E6A
:1002980007BE53EF01F051EF01F057EF01F0066C84
:1002A800071ED8B0072A06500710D8B45EEF01F031
:1002B80060EF01F084EF01F0010E086E68EF01F0C5
:1002C800D89006360736082A07AE6DEF01F06FEFB3
:1002D80001F064EF01F00650045C07500558D8A0FF
:1002E80078EF01F07AEF01F07EEF01F00650045E3E
:1002F8000750055AD89007320632082E6FEF01F0E2
:100308000950D8B48AEF01F08CEF01F090EF01F0BA
:10031800046C051ED8B0052A04C004F005C005F019
:100328001200860EF66E030EF76E000EF86E00EEE3
:1003380010F010EE0AF00900F5CFEEFFE550E1509D
:10034800FAE100EE1AF0070EEE6AE806FDE12190E8
:100358002192000120EF00F093809382F288F086CA
:10036800F292F090F19CF19AD08EF09CF28CF28E81
:1003780012000600010E206EF292219211003F0633
:080388005B4F666D7D077F6786
:020000040020DA
:08000000FFFFFFFFFFFFFFFF00
:020000040030CA
:0E000000000C181EFF8184FF0FC00FE00F40A0
:00000001FF
