:020000040000FA
:040000001EEF00F0FF
:060008000D820EED05F073
:100018000D80D8CF01F0E8CF02F0E0CF03F0020E58
:100028000C6EF09003C0E0FF02C0E8FF01C0D8FFEB
:080038000D90100004EF05F02B
:0B080000005069633138663435000099
:10080C00056E05C004F0F00E04168C500F0B04108E
:10081C008C6E8C94070E046E7D0EE82EFED7042E83
:10082C00FCD700F08C86070E046E7D0EE82EFED7EA
:10083C00042EFCD700F08C960F0E8C1605C004F01D
:10084C000F0E04160438F00B8C128C94070E046EE9
:10085C007D0EE82EFED7042EFCD700F08C86070EFA
:10086C00046E7D0EE82EFED7042EFCD700F08C967D
:10087C001200056E05C004F0F00E04168C500F0B20
:10088C0004108C6E8C84070E046E7D0EE82EFED741
:10089C00042EFCD700F08C86070E046E7D0EE82E1D
:1008AC00FED7042EFCD700F08C960F0E8C1605C0CC
:1008BC0004F00F0E04160438F00B8C128C84070E07
:1008CC00046E7D0EE82EFED7042EFCD700F08C862D
:1008DC00070E046E7D0EE82EFED7042EFCD700F01A
:1008EC008C961200AAEC04F0000E076E010E066E38
:1008FC00000E096E0A0E086EF0EC04F0710E3FEC5F
:10090C0004F0000E076E000E066E000E096E000E4F
:10091C00086EF0EC04F0010E066E080E076ED5ECB6
:10092C0004F00D0E0B6EAF0E0A6EB60EE82EFED74F
:10093C000A2EFCD70B2EFAD700D0010E06EC04F0D1
:10094C00A6EF04F01EEF00F0620E066E660EE82EA7
:10095C00FED7062EFCD7000E956E300E06EC04F07A
:10096C00210E066E760EE82EFED7062EFCD700D092
:10097C00300E06EC04F0A60EE82EFED700D0320E98
:10098C0006EC04F0280E06EC04F00C0E06EC04F059
:10099C00010E06EC04F0060E06EC04F01200E1EF7A
:1009AC0004F006C0F6FF07C0F7FF0800F5503FEC57
:1009BC0004F0064A072A06C0F6FF07C0F7FF080036
:1009CC00F5500009D8A4EDEF04F0EFEF04F0D7EFE9
:1009DC0004F0120006040710D8A4F7EF04F0F9EFA6
:1009EC0004F0FFEF04F00850C00F06EC04F003EF26
:1009FC0005F00850800F06EC04F012000C6A0D9004
:100A0C000D92000EF86E080EF76E000178EF04F0F0
:0C0A1C000600010E0C6EF2920D9211000B
:020000040020DA
:08000000FFFFFFFFFFFFFFFF00
:020000040030CA
:0E000000000C181EFF8184FF0FC00FE00F40A0
:00000001FF
