:020000040000FA
:0400000077EF3FF067
:107EEE00026A016A00018FEF3FF04D0ECB6E000E5D
:107EFE00BE6EBD50CF0B1009BD6E9494CA50FC0BD4
:107F0E000209CA6ECA84BD50F00B0C09BD6E120078
:107F1E007CEC3FF09380938281B098EF3FF09AEF24
:107F2E003FF0C8EF3FF0014A022A380E011806E171
:107F3E000204D8A4A5EF3FF0A7EF3FF0ABEF3FF060
:107F4E00010E026E370E016E01C003F002C004F086
:107F5E00D89004320332D890043203320350BE6EEE
:107F6E0001C003F0030E0316033ABD500318CF0BE6
:107F7E000318BD6E820E036EDE0EE82EFED7032EA4
:107F8E00FCD781B2CDEF3FF0CFEF3FF093EF3FF054
:107F9E000106D8A0020601500210D8A4D9EF3FF076
:107FAE00DBEF3FF0DFEF3FF0000E026E010E016ED1
:107FBE0001C003F002C004F0D89004320332D8900E
:107FCE00043203320350BE6E01C003F0030E0316DB
:107FDE00033ABD500318CF0B0318BD6E820E036E0D
:107FEE00DE0EE82EFED7032EFCD793EF3FF000EF08
:027FFE0000F091
:020000040020DA
:08000000FFFFFFFFFFFFFFFF00
:020000040030CA
:0E000000000C181EFF8184FF0FC00FE00F40A0
:00000001FF
