:020000040000FA
:0400000014EF00F009
:060008002082B0ED00F0C3
:100018002080E0CF16F0F09016C0E0FF209010008E
:10002800A5EF00F09282928092EC00F07FEC00F055
:10003800000E5EEC00F017C01EF018C01FF0380E5E
:100048001E1806E11F04D8A42CEF00F02EEF00F0D4
:1000580032EF00F0010E1F6E370E1E6E1E501F107D
:10006800D8A439EF00F03BEF00F03FEF00F0000EAE
:100078001F6E010E1E6E1F50BE6E1EC01BF01FC0ED
:100088001CF0060E1D6ED8901C321B321D2E47EF39
:1000980000F01B3ABD501B18CF0B1B18BD6E820E0B
:1000A8001B6EDE0EE82EFED71B2EFCD71CEF00F0D1
:1000B80014EF00F01A6E0C0E1A6465EF00F067EF8B
:1000C80000F069EF00F0000E1A6E1AC019F0194618
:1000D8001946C2501918C30B1918C26EC282C2B28F
:1000E80078EF00F07AEF00F073EF00F0C3CF17F06D
:1000F800C4CF18F012004D0ECB6E000EBE6EBD5070
:10010800CF0B1009BD6E9494CA50FC0B0209CA6E3D
:10011800CA84BD50F00B0C09BD6E1200C150F00B23
:100128000D09C16ECF0EC116C30EC216C050F80B12
:100138000509C06EC050C70B1009C06EC09EC280B2
:10014800120000EE01F0150EEE6AE806FDE12090BF
:100158002092000116EF00F00600F29220921100A2
:020000040020DA
:08000000FFFFFFFFFFFFFFFF00
:020000040030CA
:0E000000000C181EFF8184FF0FC00FE00F40A0
:00000001FF
